:100000000C9434000C9451000C9451000C94510049
:100010000C9451000C9451000C9451000C9451001C
:100020000C9451000C9451000C9451000C9451000C
:100030000C9451000C9451000C9451000C945100FC
:100040000C94F2000C9451000C9451000C9451004B
:100050000C9451000C94D2000C9451000C9451005B
:100060000C9451000C94510011241FBECFEFD8E026
:10007000DEBFCDBF11E0A0E0B1E0ECE4F2E002C0F1
:1000800005900D92A031B107D9F721E0A0E1B1E0D0
:1000900001C01D92A331B207E1F70E94BA000C948F
:1000A00024010C9400001092C1008FEF84B98AB92A
:1000B00086E088B988EF87B915B81BB888B1886021
:1000C00088B988B18F7E88B90895ECE7F0E0108296
:1000D00080818064808380818F778083808180624B
:1000E0008083EAE7F0E010828081806880838081ED
:1000F000886080838081816080838081826080834A
:10010000808184608083EEE7F0E08081816080837D
:10011000089514BC85E085BD81E080936E0083E680
:1001200086BD0895319910C02FEF83EC99E02150DE
:1001300080409040E1F700C00000319B05C08091F5
:1001400012018F5F80931201329910C02FEF83EC60
:1001500099E0215080409040E1F700C00000329BC0
:1001600005C080911201815080931201809112018B
:1001700085B90895F8940E9453000E9465000E947A
:10018000890078940E9492009091790080911201E8
:10019000981304C088B1806288B9F4CF88B18F7D8C
:1001A00088B9F0CF1F920F920FB60F9211248F9340
:1001B000EF93FF93E9E7F0E080818F708093110166
:1001C000808182958F7080931001EAE7F0E0808152
:1001D00080618083FF91EF918F910F900FBE0F9000
:1001E0001F9018951F920F920FB60F9211248F93A4
:1001F0009F93EF93FF93EAE7F0E080818064808330
:1002000098B188E0892788B998B180E1892788B9B1
:10021000439B08C0E0911101F0E0E050FF4F808166
:100220008BB907C0E0911001F0E0E050FF4F8081F2
:100230008BB983E686BDFF91EF919F918F910F90CF
:0C0240000FBE0F901F901895F894FFCF90
:10024C003F065B4F666D7D077F6F777C395E7971FA
:00000001FF
